:020000040800F2
:100000000000022071030008C1030008C1030008BA
:10001000C1030008C1030008C1030008000000007C
:10002000000000000000000000000000C103000804
:10003000C103000800000000C1030008C10300085C
:10004000C1030008C1030008C1030008C103000880
:10005000C1030008C1030008C1030008C103000870
:10006000C1030008C1030008C1030008C103000860
:10007000C1030008C1030008C1030008C103000850
:10008000C1030008C1030008C1030008000000000C
:10009000000000000000000000000000C103000894
:1000A000C1030008C1030008C1030008C103000820
:1000B000C1030008C1030008C1030008C103000810
:1000C000C1030008C1030008C1030008C103000800
:1000D000C1030008C1030008C103000800000000BC
:1000E000C1030008C1030008C103000800000000AC
:1000F000000000000000000000000000C103000834
:1001000000000000C1030008C1030008C10300088B
:1001100000000000000000000000000000000000DF
:10012000C1030008C1030008C1030008C10300089F
:10013000C1030008000000000000000000000000F3
:10014000000000000000000000000000C1030008E3
:10015000C1030008C1030008C1030008C10300086F
:10016000C1030008C10300080000000000000000F7
:10017000000000000000000000000000000000007F
:1001800000000000C10300080000000000000000A3
:08019000C1030008C1030008CF
:1001980080B485B000AF254BFB60FB681B6843F457
:1001A8008032FB681A6000BFFB681B6803F40033E9
:1001B800002BF9D01E4BBB60BB681B6843F4800260
:1001C800BB681A60BB681B6823F44032BB681A60BE
:1001D800BB681B6843F4A062BB681A60BB681B68F5
:1001E80043F00802BB681A60FB681B6843F0807222
:1001F800FB681A6000BFFB681B6803F00073002BE4
:10020800F9D00C4B7B607B681B6843F002027B686B
:100218001A60094B3B603B681B6843F008023B6867
:100228001A6000BF1437BD4680BC704700380240D2
:1002380004380240083802403038024080B483B0A5
:1002480000AF0D4B7B607B681B6823F040627B68C6
:100258001A607B681B6843F080627B681A60074BF2
:100268003B603B681B6823F400523B681A6000BF80
:100278000C37BD4680BC7047000C0240040C02409D
:1002880080B485B000AF0346FB710B4BFB60FB7974
:10029800012B06D1FB681B6843F40052FB681A6007
:1002A80005E0FB681B6823F40052FB681A6000BF76
:1002B8001437BD4680BC7047140C024080B400AFB0
:1002C80000BFBD4680BC704780B500AFFFF760FF38
:1002D800FFF7B4FF0120FFF7D3FFFBE70348044B08
:1002E800834202D0034B03B1184770470400002033
:1002F80004000020000000000548064B1B1AD90F17
:1003080001EBA301491002D0034B03B11847704712
:1003180004000020040000200000000010B5064C76
:10032800237843B9FFF7DAFF044B13B10448AFF35E
:1003380000800123237010BD04000020000000008D
:10034800E404000808B5054B1BB105490548AFF39F
:100358000080BDE80840FFF7CFBF00BF00000000E5
:1003680008000020E4040008DFF834D00D480E49E6
:100378000E4A002302E0D458C4500433C4188C42F7
:10038800F9D30B4A0B4C002301E013600432A2425C
:10039800FBD3FFF793FF00F011F8FFF795FF7047C5
:1003A80000000220000000200400002008050008CA
:1003B80004000020B8010020FEE7000070B50F4BD4
:1003C8000F4DAB42A3EB050607D0B610002455F835
:1003D800043B01349847A642F9D800F07FF8094D4C
:1003E800094B5E1BAB424FEAA60606D0002455F81F
:1003F800043B01349847A642F9D870BDFC040008B4
:10040800FC040008FC04000804050008704700BF4D
:10041800704700BF024B13B1024800F005B870479F
:10042800000000003D040008002301461A46184653
:1004380000F014B838B5074D074C2C1BA41005D094
:10044800013C55F8043D9847002CF9D1BDE83840E7
:1004580000F04AB808050008040500082DE9F8432B
:100468001B4D0646286898460F469146FFF7CEFF73
:10047800184B1C681CB3286865681F2D22DC4EB910
:100488006B1C0235636044F82570FFF7C1FF00203C
:10049800BDE8F88304EB85010123C1F88890D4F8FE
:1004A8008821AB401A43022EC4F88821C1F808817C
:1004B800E6D1D4F88C211A43C4F88C21E0E7064C25
:1004C8001C60D8E7FFF7A4FF4FF0FF30E0E700BF5C
:1004D800000000202400002028000020F8B500BFFC
:1004E800F8BC08BC9E467047F8B500BFF8BC08BC0D
:0404F8009E46704765
:0804FC001D0400084D03000877
:0405040025030008C3
:0405080020000020AF
:04000005080003717B
:00000001FF
