:020000040800F2
:1000000000000220AD100008FD100008FD100008DF
:10001000FD100008FD100008FD10000800000000A1
:10002000000000000000000000000000FD100008BB
:10003000FD10000800000000FD100008FD10000881
:10004000FD100008FD100008FD100008FD1000085C
:10005000FD100008FD100008FD100008FD1000084C
:10006000FD100008FD100008FD100008FD1000083C
:10007000FD100008FD100008FD100008FD1000082C
:10008000FD100008FD100008FD1000080000000031
:10009000000000000000000000000000FD1000084B
:1000A000FD100008FD100008FD100008FD100008FC
:1000B000FD100008FD100008FD100008FD100008EC
:1000C000FD100008FD100008FD100008FD100008DC
:1000D000FD100008FD100008FD10000800000000E1
:1000E000FD100008FD100008FD10000800000000D1
:1000F000000000000000000000000000FD100008EB
:1001000000000000FD100008FD100008FD100008B0
:1001100000000000000000000000000000000000DF
:10012000FD100008FD100008FD100008FD1000087B
:10013000FD100008000000000000000000000000AA
:10014000000000000000000000000000FD1000089A
:10015000FD100008FD100008FD100008FD1000084B
:10016000FD100008FD100008000000000000000065
:10017000000000000000000000000000000000007F
:1001800000000000FD10000800000000000000005A
:08019000FD100008FD1000083D
:1001980080B500AF00F00AF800F00EF800F094F80F
:1001A8000346014A1360F9E70800002080B400AF55
:1001B80000BFBD4680BC704780B487B000AF194B04
:1001C8007B617B691B6843F480727B691A60164BFC
:1001D8003B61164BFB60164BBB603B691B6843F4E5
:1001E800E0123B691A60134B7B607B681B6823F441
:1001F80040127B681A607B681B6843F400227B68A6
:100208001A60BB681B6843F40002BB681A60FB688D
:100218001B6843F00102FB681A6000BF1C37BD462B
:1002280080BC7047443802400C200140082001403F
:10023800042301403820014080B584B000AF1E4B34
:10024800FB60FB681B6843F48002FB681A601B4B69
:10025800BB6000BFBB681B6803F00403002BF9D028
:10026800BB681B6823F00402BB681A60144B7B60F0
:100278007B681B68184600F095F94FF00002114B97
:1002880000F00AFA02460B461046194608A3D3E9BD
:10029800002300F02BFB02460B461046194600F0DF
:1002A8000DFC034618461037BD4680BDAFF30080ED
:1002B8000000000000FEAF4008200140002001407F
:1002C8003C2001400000084080B584B000AFFFF733
:1002D800B3FF03460E4A13600E4BFB600E4BBB6028
:1002E8000B4B1B68F968184600F03CFC0346B968DC
:1002F800184600F0F5FD03460849184600F034FC9E
:1003080003467B607B6818461037BD4680BD00BF3A
:10031800040000205C8F423F0AD7233B0000C841FD
:1003280081F0004102E000BF83F0004330B54FEA9E
:1003380041044FEA430594EA050F08BF90EA020F0B
:100348001FBF54EA000C55EA020C7FEA645C7FEA9E
:10035800655C00F0E2804FEA5454D4EB5555B8BFC1
:100368006D420CDD2C4480EA020281EA030382EA32
:10037800000083EA010180EA020281EA0303362DC4
:1003880088BF30BD11F0004F4FEA01314FF4801C97
:100398004CEA113102D0404261EB410113F0004FA9
:1003A8004FEA03334CEA133302D0524263EB430360
:1003B80094EA050F00F0A780A4F10104D5F1200EFE
:1003C8000DDB02FA0EFC22FA05F2801841F1000159
:1003D80003FA0EF2801843FA05F359410EE0A5F12D
:1003E80020050EF1200E012A03FA0EFC28BF4CF05E
:1003F800020C43FA05F3C01851EBE37101F0004514
:1004080007D54FF0000EDCF1000C7EEB00006EEB20
:100418000101B1F5801F1BD3B1F5001F0CD34908AA
:100428005FEA30004FEA3C0C04F101044FEA445201
:1004380012F5800F80F09A80BCF1004F08BF5FEA88
:10044800500C50F1000041EB045141EA050130BD68
:100458005FEA4C0C404141EB0101013C28BFB1F57A
:10046800801FE9D291F0000F04BF01460020B1FAC5
:1004780081F308BF2033A3F10B03B3F120020CDA98
:100488000C3208DD02F1140CC2F10C0201FA0CF076
:1004980021FA02F10CE002F11402D8BFC2F1200CDB
:1004A80001FA02F120FA0CFCDCBF41EA0C01904091
:1004B800E41AA2BF01EB0451294330BD6FEA0404DA
:1004C8001F3C1CDA0C340EDC04F11404C4F12002C5
:1004D80020FA04F001FA02F340EA030021FA04F3D7
:1004E80045EA030130BDC4F10C04C4F1200220FA2E
:1004F80002F001FA04F340EA0300294630BD21FA6C
:1005080004F0294630BD94F0000F83F4801306BF31
:1005180081F480110134013D4EE77FEA645C18BF25
:100528007FEA655C29D094EA050F08BF90EA020FBC
:1005380005D054EA000C04BF1946104630BD91EAB4
:10054800030F1EBF0021002030BD5FEA545C05D1B7
:100558004000494128BF41F0004130BD14F58004F6
:100568003CBF01F5801130BD01F0004545F0FE416A
:1005780041F470014FF0000030BD7FEA645C1ABF9F
:10058800194610467FEA655C1CBF0B46024650EAD6
:10059800013406BF52EA033591EA030F41F4002102
:1005A80030BD00BF90F0000F04BF0021704730B588
:1005B8004FF4806404F132044FF000054FF000015D
:1005C80050E700BF90F0000F04BF0021704730B51E
:1005D8004FF4806404F1320410F0004548BF4042F3
:1005E8004FF000013EE700BF42004FEAE2014FEA48
:1005F80031014FEA02701FBF12F07F4393F07F4F23
:1006080081F06051704732F07F4208BF704793F025
:100618007F4F04BF41F40021704730B54FF4607438
:1006280001F0004521F000411CE700BF50EA01023B
:1006380008BF704730B54FF000050AE050EA0102E4
:1006480008BF704730B511F0004502D5404261EB54
:1006580041014FF4806404F132045FEA915C3FF495
:10066800D8AE4FF003025FEADC0C18BF03325FEA32
:10067800DC0C18BF033202EBDC02C2F1200300FAE3
:1006880003FC20FA02F001FA03FE40EA0E0021FA08
:1006980002F11444BDE600BF70B54FF0FF0C4CF4F6
:1006A800E06C1CEA11541DBF1CEA135594EA0C0FA8
:1006B80095EA0C0F00F0DEF82C4481EA030621EAE3
:1006C8004C5123EA4C5350EA013518BF52EA03351E
:1006D80041F4801143F4801338D0A0FB02CE4FF0D0
:1006E8000005E1FB02E506F00042E0FB03E54FF000
:1006F8000006E1FB03569CF0000F18BF4EF0010EF8
:10070800A4F1FF04B6F5007F64F5407404D25FEAF3
:100718004E0E6D4146EB060642EAC62141EA5551A6
:100728004FEAC52040EA5E504FEACE2EB4F1FD0CE8
:1007380088BFBCF5E06F1ED8BEF1004F08BF5FEA66
:10074800500E50F1000041EB045170BD06F0004618
:1007580046EA010140EA020081EA0301B4EB5C04C5
:10076800C2BFD4EB0C0541EA045170BD41F48011BD
:100778004FF0000E013C00F3AB8014F1360FDEBFE2
:10078800002001F0004170BDC4F10004203C35DABE
:100798000C341BDC04F11404C4F1200500FA05F341
:1007A80020FA04F001FA05F240EA020001F00042E2
:1007B80021F0004110EBD37021FA04F642EB060158
:1007C8005EEA430E08BF20EAD37070BDC4F10C0482
:1007D800C4F1200500FA04F320FA05F001FA04F246
:1007E80040EA020001F0004110EBD37041F1000132
:1007F8005EEA430E08BF20EAD37070BDC4F120053D
:1008080000FA05F24EEA020E20FA04F301FA05F2A4
:1008180043EA020321FA04F001F0004121FA04F24C
:1008280020EA020000EBD3705EEA430E08BF20EA1C
:10083800D37070BD94F0000F0FD101F00046400056
:1008480041EB010111F4801F08BF013CF7D041EAD8
:10085800060195F0000F18BF704703F000465200DC
:1008680043EB030313F4801F08BF013DF7D043EAAD
:100878000603704794EA0C0F0CEA135518BF95EA63
:100888000C0F0CD050EA410618BF52EA4306D1D1EA
:1008980081EA030101F000414FF0000070BD50EA09
:1008A800410606BF1046194652EA430619D094EA93
:1008B8000C0F02D150EA013613D195EA0C0F05D17D
:1008C80052EA03361CBF104619460AD181EA0301D1
:1008D80001F0004141F0FE4141F470014FF0000089
:1008E80070BD41F0FE4141F4780170BD70B54FF024
:1008F800FF0C4CF4E06C1CEA11541DBF1CEA1355A4
:1009080094EA0C0F95EA0C0F00F0A7F8A4EB050485
:1009180081EA030E52EA03354FEA013100F088807C
:100928004FEA03334FF0805545EA131343EA126345
:100938004FEA022245EA111545EA10654FEA0026FA
:100948000EF000419D4208BF964244F1FD0404F5B3
:10095800407402D25B084FEA3202B61A65EB03050F
:100968005B084FEA32024FF480104FF4002CB6EBCC
:10097800020E75EB030E22BFB61A754640EA0C004C
:100988005B084FEA3202B6EB020E75EB030E22BF8C
:10099800B61A754640EA5C005B084FEA3202B6EBCD
:1009A800020E75EB030E22BFB61A754640EA9C008C
:1009B8005B084FEA3202B6EB020E75EB030E22BF5C
:1009C800B61A754640EADC0055EA060E18D04FEA1A
:1009D800051545EA16754FEA06164FEAC30343EABA
:1009E80052734FEAC2025FEA1C1CC0D111F4801F87
:1009F8000BD141EA00014FF000004FF0004CB6E780
:100A080011F4801F04BF01430020B4F1FD0C88BF1E
:100A1800BCF5E06F3FF6AFAEB5EB030C04BFB6EB29
:100A2800020C5FEA500C50F1000041EB045170BD1C
:100A38000EF0004E4EEA113114EB5C04C2BFD4EB49
:100A48000C0541EA045170BD41F480114FF0000ECD
:100A5800013C90E645EA060E8DE60CEA135594EA49
:100A68000C0F08BF95EA0C0F3FF43BAF94EA0C0F4C
:100A78000AD150EA01347FF434AF95EA0C0F7FF4C1
:100A880025AF104619462CE795EA0C0F06D152EA15
:100A980003353FF4FDAE1046194622E750EA4106F9
:100AA80018BF52EA43067FF4C5AE50EA41047FF40A
:100AB8000DAF52EA43057FF4EBAE12E74FEA41026D
:100AC800B2F1E04324BFB3F5001CDCF1FE5C0DD9A4
:100AD80001F0004C4FEAC0024CEA5070B2F1004FEE
:100AE80040EB830008BF20F00100704711F0804FF1
:100AF80021D113F13872BCBF01F00040704741F4B6
:100B080080114FEA5252C2F11802C2F1200C10FAB9
:100B18000CF320FA02F018BF40F001004FEAC1239D
:100B28004FEAD32303FA0CFC40EA0C0023FA02F341
:100B38004FEA4303CCE77FEA625307D150EA013317
:100B48001EBF4FF0FE4040F44000704701F00040E7
:100B580040F0FE4040F40000704700BF80F00040C5
:100B680002E000BF81F0004142001FBF5FEA41037D
:100B780092EA030F7FEA226C7FEA236C6AD04FEA7D
:100B88001262D2EB1363C1BFD218414048404140C2
:100B9800B8BF5B42192B88BF704710F0004F40F474
:100BA800000020F07F4018BF404211F0004F41F490
:100BB800000121F07F4118BF494292EA030F3FD05C
:100BC800A2F1010241FA03FC10EB0C00C3F120036F
:100BD80001FA03F100F0004302D5494260EB4000FE
:100BE800B0F5000F13D3B0F1807F06D340084FEA69
:100BF800310102F10102FE2A51D2B1F1004F40EB5E
:100C0800C25008BF20F0010040EA030070474900C5
:100C180040EB0000013A28BFB0F5000FEDD2B0FA62
:100C280080FCACF1080CB2EB0C0200FA0CF0AABF85
:100C380000EBC25052421843BCBFD0401843704723
:100C480092F0000F81F4000106BF80F40000013229
:100C5800013BB5E74FEA41037FEA226C18BF7FEA00
:100C6800236C21D092EA030F04D092F0000F08BF42
:100C78000846704790EA010F1CBF0020704712F029
:100C88007F4F04D1400028BF40F00040704712F168
:100C980000723CBF00F50000704700F0004343F0CD
:100CA800FE4040F4000070477FEA226216BF084603
:100CB8007FEA23630146420206BF5FEA412390EAC6
:100CC800010F40F4800070474FF0000304E000BFBC
:100CD80010F0004348BF40425FEA000C08BF70476D
:100CE80043F0964301464FF000001CE050EA010231
:100CF80008BF70474FF000030AE000BF50EA010246
:100D080008BF704711F0004302D5404261EB410132
:100D18005FEA010C02BF84460146002043F0B64357
:100D280008BFA3F18053A3F50003BCFA8CF2083A7C
:100D3800A3EBC25310DB01FA02FC634400FA02FC85
:100D4800C2F12002BCF1004F20FA02F243EB02008C
:100D580008BF20F00100704702F1200201FA02FCEE
:100D6800C2F1200250EA4C0021FA02F243EB0200E1
:100D780008BF20EADC7070474FF0FF0C1CEAD05225
:100D88001EBF1CEAD15392EA0C0F93EA0C0F6FD0E6
:100D98001A4480EA010C400218BF5FEA41211ED0C4
:100DA8004FF0006343EA501043EA5111A0FB0131B0
:100DB8000CF00040B1F5000F3EBF490041EAD37185
:100DC8005B0040EA010062F17F02FD2A1DD8B3F101
:100DD800004F40EBC25008BF20F00100704790F070
:100DE800000F0CF0004C08BF49024CEA502040EAC2
:100DF80051207F3AC2BFD2F1FF0340EAC250704788
:100E080040F400004FF00003013A5DDC12F1190FC5
:100E1800DCBF00F000407047C2F10002410021FA37
:100E280002F1C2F1200200FA02FC5FEA310040F14F
:100E3800000053EA4C0308BF20EADC70704792F0C8
:100E4800000F00F0004C02BF400010F4000F013A00
:100E5800F9D040EA0C0093F0000F01F0004C02BFFB
:100E6800490011F4000F013BF9D041EA0C018FE76A
:100E78000CEAD15392EA0C0F18BF93EA0C0F0AD070
:100E880030F0004C18BF31F0004CD8D180EA010096
:100E980000F00040704790F0000F17BF90F0004F2F
:100EA800084691F0000F91F0004F14D092EA0C0F11
:100EB80001D142020FD193EA0C0F03D14B0218BFA4
:100EC800084608D180EA010000F0004040F0FE40EA
:100ED80040F40000704740F0FE4040F44000704786
:100EE8004FF0FF0C1CEAD0521EBF1CEAD15392EA05
:100EF8000C0F93EA0C0F69D0A2EB030280EA010CF5
:100F080049024FEA402037D04FF0805343EA11118D
:100F180043EA10130CF000408B4238BF5B0042F1EB
:100F28007D024FF4000C8B4224BF5B1A40EA0C0090
:100F3800B3EB510F24BFA3EB510340EA5C00B3EBC2
:100F4800910F24BFA3EB910340EA9C00B3EBD10FB0
:100F580024BFA3EBD10340EADC001B0118BF5FEA02
:100F68001C1CE0D1FD2A3FF650AF8B4240EBC2502B
:100F780008BF20F0010070470CF0004C4CEA5020EC
:100F88007F32C2BFD2F1FF0340EAC250704740F43B
:100F980000004FF00003013A37E792F0000F00F02D
:100FA800004C02BF400010F4000F013AF9D040EAAB
:100FB8000C0093F0000F01F0004C02BF490011F43F
:100FC800000F013BF9D041EA0C0195E70CEAD15337
:100FD80092EA0C0F08D142027FF47DAF93EA0C0F1E
:100FE8007FF470AF084676E793EA0C0F04D14B0202
:100FF8003FF44CAF08466EE730F0004C18BF31F0B4
:10100800004CCAD130F000427FF45CAF31F00043AD
:101018007FF43CAF5FE700BF0348044B834202D034
:10102800034B03B118477047040000200400002058
:10103800000000000548064B1B1AD90F01EBA3015D
:10104800491002D0034B03B1184770470400002031
:10105800040000200000000010B5064C237843B9B6
:10106800FFF7DAFF044B13B10448AFF30080012304
:10107800237010BD0C0000200000000020120008A2
:1010880008B5054B1BB105490548AFF30080BDE81D
:101098000840FFF7CFBF00BF00000000100000208D
:1010A80020120008DFF834D00D480E490E4A0023FC
:1010B80002E0D458C4500433C4188C42F9D30B4A04
:1010C8000B4C002301E013600432A242FBD3FFF76C
:1010D8006DF800F011F8FFF75BF870470000022088
:1010E8000000002004000020441200080400002032
:1010F800C0010020FEE7000070B50F4B0F4DAB425A
:10110800A3EB050607D0B610002455F8043B0134BC
:101118009847A642F9D800F07FF8094D094B5E1BA5
:10112800AB424FEAA60606D0002455F8043B01342A
:101138009847A642F9D870BD38120008381200083E
:101148003812000840120008704700BF704700BFFF
:10115800024B13B1024800F005B8704700000000C8
:1011680079110008002301461A46184600F014B801
:1011780038B5074D074C2C1BA41005D0013C55F879
:10118800043D9847002CF9D1BDE8384000F04AB832
:1011980044120008401200082DE9F8431B4D06468A
:1011A800286898460F469146FFF7CEFF184B1C68F3
:1011B8001CB3286865681F2D22DC4EB96B1C0235EC
:1011C800636044F82570FFF7C1FF0020BDE8F8838D
:1011D80004EB85010123C1F88890D4F88821AB403D
:1011E8001A43022EC4F88821C1F80881E6D1D4F840
:1011F8008C211A43C4F88C21E0E7064C1C60D8E720
:10120800FFF7A4FF4FF0FF30E0E700BF0000002029
:101218002C00002030000020F8B500BFF8BC08BC46
:101228009E467047F8B500BFF8BC08BC9E4670479C
:0812380059110008891000089B
:041240006110000831
:04124400280000205E
:04000005080010AD32
:00000001FF
