:020000040800F2
:10400000000002204D4400089D4400089D44000823
:104010009D4400089D4400089D44000800000000E5
:104020000000000000000000000000009D440008A7
:104030009D440008000000009D4400080143000862
:104040009D4400089D4400089D4400089D440008CC
:104050009D4400089D4400089D4400089D440008BC
:104060009D4400089D4400089D4400089D440008AC
:104070009D4400089D4400089D4400089D4400089C
:104080009D4400089D4400089D4400080000000075
:104090000000000000000000000000009D44000837
:1040A0009D4400089D4400089D4400089D4400086C
:1040B0009D4400089D4400089D4400089D4400085C
:1040C0009D4400089D4400089D4400089D4400084C
:1040D0009D4400089D4400089D4400080000000025
:1040E0009D4400089D4400089D4400080000000015
:1040F0000000000000000000000000009D440008D7
:10410000000000009D4400089D4400089D440008F4
:10411000000000000000000000000000000000009F
:104120009D4400089D4400089D4400089D440008EB
:104130009D44000800000000000000000000000096
:104140000000000000000000000000009D44000886
:104150009D4400089D4400089D4400089D440008BB
:104160009D4400089D44000800000000000000007D
:10417000000000000000000000000000000000003F
:10418000000000009D440008000000000000000046
:084190009D4400089D44000855
:1041980080B400AF054B1B68054A1A400349054B1C
:1041A80013430B6000BFBD4680BC70470CED00E0B8
:1041B800000405FA0003FA0580B485B000AF254B6A
:1041C800FB60FB681B6843F48032FB681A6000BF21
:1041D800FB681B6803F40033002BF9D01E4BBB604F
:1041E800BB681B6843F48002BB681A60BB681B6825
:1041F80023F44032BB681A60BB681B6843F4A062B2
:10420800BB681A60BB681B6843F00802BB681A6089
:10421800FB681B6843F08072FB681A6000BFFB688C
:104228001B6803F00073002BF9D00C4B7B607B6894
:104238001B6843F002027B681A60094B3B603B68CD
:104248001B6843F001023B681A6000BF1437BD4683
:1042580080BC7047003802400438024008380240E9
:104268003038024080B483B000AF0D4B7B600D4BFB
:104278003B607B681B6823F07F427B681A607B6821
:104288001B6843F0AA427B681A603B681B6823F4EA
:1042980070423B681A6000BF0C37BD4680BC70474F
:1042A800000C0240040C024080B485B000AF034605
:1042B8000A46FB711346BB710E4BFB60BB79012BA1
:1042C80009D1FB681B68FA79012101FA02F21A4345
:1042D800FB681A6009E0FB681B68FA79012101FA9A
:1042E80002F2D2431A40FB681A6000BF1437BD4679
:1042F80080BC7047140C024080B400AF044B1B68AC
:104308000133034A136000BFBD4680BC704700BF3D
:104318000400002080B483B000AF094B7B60094BD8
:104328003B603B6843F67F621A607B681B6843F01A
:1043380007027B681A6000BF0C37BD4680BC704717
:1043480010E000E014E000E080B483B000AF7860D3
:10435800074B00221A6000BF054B1B687A689A4217
:10436800FAD800BF00BF0C37BD4680BC704700BFFD
:104378000400002080B400AF00BFBD4680BC704779
:1043880080B500AFFFF718FFFFF7C4FFFFF700FF86
:10439800FFF768FF01210C20FFF786FF4FF47A70C2
:1043A800FFF7D2FF00210C20FFF77EFF4FF47A7051
:1043B800FFF7CAFFEEE700BF0348044B834202D071
:1043C800034B03B118477047040000200400002085
:1043D800000000000548064B1B1AD90F01EBA3018A
:1043E800491002D0034B03B118477047040000205E
:1043F800040000200000000010B5064C237843B9E3
:10440800FFF7DAFF044B13B10448AFF30080012330
:10441800237010BD0800002000000000C0450008FF
:1044280008B5054B1BB105490548AFF30080BDE849
:104438000840FFF7CFBF00BF000000000C000020BD
:10444800C0450008DFF834D00D480E490E4A002355
:1044580002E0D458C4500433C4188C42F9D30B4A30
:104468000B4C002301E013600432A242FBD3FFF798
:1044780081FF00F011F8FFF783FF7047000002206A
:104488000000002004000020E4450008040000208B
:10449800BC010020FEE7000070B50F4B0F4DAB428A
:1044A800A3EB050607D0B610002455F8043B0134E9
:1044B8009847A642F9D800F07FF8094D094B5E1BD2
:1044C800AB424FEAA60606D0002455F8043B013457
:1044D8009847A642F9D870BDD8450008D8450008C5
:1044E800D8450008E0450008704700BF704700BF86
:1044F800024B13B1024800F005B8704700000000F5
:1045080019450008002301461A46184600F014B859
:1045180038B5074D074C2C1BA41005D0013C55F8A5
:10452800043D9847002CF9D1BDE8384000F04AB85E
:10453800E4450008E04500082DE9F8431B4D064610
:10454800286898460F469146FFF7CEFF184B1C681F
:104558001CB3286865681F2D22DC4EB96B1C023518
:10456800636044F82570FFF7C1FF0020BDE8F883B9
:1045780004EB85010123C1F88890D4F88821AB4069
:104588001A43022EC4F88821C1F80881E6D1D4F86C
:104598008C211A43C4F88C21E0E7064C1C60D8E74C
:1045A800FFF7A4FF4FF0FF30E0E700BF0000002056
:1045B800280000202C000020F8B500BFF8BC08BC7B
:1045C8009E467047F8B500BFF8BC08BC9E467047C9
:0845D800F94400082944000821
:0445E000014400088A
:0445E400240000208F
:040000050800444D5E
:00000001FF
