:020000040800F2
:1000000000000220A5050008F1050008F105000820
:10001000F1050008F1050008F105000800000000E6
:10002000000000000000000000000000F1050008D2
:10003000F105000800000000F1050008F1050008C6
:10004000F1050008F1050008F1050008F1050008B8
:10005000F1050008F1050008F1050008F1050008A8
:10006000F1050008F1050008F1050008F105000898
:10007000F1050008F1050008F1050008F105000888
:10008000F1050008F1050008F10500080000000076
:10009000000000000000000000000000F105000862
:1000A000F1050008F1050008F1050008F105000858
:1000B000F1050008F1050008F1050008F105000848
:1000C000F1050008F1050008F1050008F105000838
:1000D000F1050008F1050008F10500080000000026
:1000E000F1050008F1050008F10500080000000016
:1000F000000000000000000000000000F105000802
:1001000000000000F1050008F1050008F1050008F5
:1001100000000000000000000000000000000000DF
:10012000F1050008F1050008F1050008F1050008D7
:10013000F1050008000000000000000000000000C1
:10014000000000000000000000000000F1050008B1
:10015000F1050008F1050008F1050008F1050008A7
:10016000F1050008F1050008000000000000000093
:10017000000000000000000000000000000000007F
:1001800000000000F1050008000000000000000071
:08019000F1050008F10500086B
:1001980080B489B000AF234BFB61FB691B6843F057
:1001A8000202FB691A60204BBB61BB691B6843F400
:1001B8000222BB691A601D4B7B617B691B6823F0B7
:1001C8007F427B691A607B691B6843F088427B69C0
:1001D8001A60174B3B613B691B6843F400123B698B
:1001E8001A60144BFB60FB681B6823F00102FB6874
:1001F8001A60114BBB60BB681B6843F01002BB68F8
:100208001A600E4B7B607B6850221A60FB681B6883
:1002180043F00102FB681A6000BF2437BD4680BC6A
:10022800704700BF303802400004024020040240FA
:100238004038024000540040045400401C54004020
:1002480080B48BB000AF03460A46FB711346BB71FE
:10025800384B7B62384B3B62384BFB61384BBB6198
:10026800FB795B00FB7500BFBB691B6803F00203E9
:10027800002BF9D17B6A1B6843F480727B6A1A6091
:1002880000BFFB691B6803F00103002BF9D0FA7D5E
:100298003B6A1A6000BFFB691B6803F00203002B6E
:1002A800F9D0BB691B683B61BA793B6A1A6000BF29
:1002B800FB691B6803F00403002BF9D000BFFB693E
:1002C8001B6803F48063002BF9D17B6A1B6843F435
:1002D80080727B6A1A6000BFFB691B6803F0010328
:1002E800002BF9D0FB7D43F00103DBB21A463B6AD1
:1002F8001A6000BFFB691B6803F00203002BF9D0EA
:10030800BB691B683B6100BFFB691B6803F04003C6
:10031800002BF9D03B6A1B68FB737B6A1B6843F4AC
:1003280000727B6A1A60FB7B18462C37BD4680BC7E
:10033800704700BF0054004010540040145400405F
:100348001854004080B489B000AF0346FB710B46D7
:10035800BB7113467B71304BFB61304BBB61304B3B
:100368007B61304B3B61FB795B00FB7300BF3B69F2
:100378001B6803F00203002BF9D1FB691B6843F4E7
:100388008072FB691A6000BF7B691B6803F0010378
:10039800002BF9D0FA7BBB691A6000BF7B691B6828
:1003A80003F00203002BF9D03B691B68BB6000BF58
:1003B8007B691B6803F48063002BF9D1BA79BB69A8
:1003C8001A6000BF7B691B6803F00403002BF9D097
:1003D80000BF7B691B6803F48063002BF9D17A792D
:1003E800BB691A6000BF7B691B6803F00403002B1C
:1003F800F9D000BF7B691B6803F48063002BF9D137
:10040800FB691B6843F40072FB691A6000BF24375C
:10041800BD4680BC704700BF0054004010540040E7
:10042800145400401854004080B584B000AFFFF762
:10043800AFFE1923FB731E23BB73FB7B0F211846EA
:10044800FFF7FEFE03467B73BB7B4F211846FFF781
:10045800F7FE03463B73BB7B002260211846FFF77B
:1004680071FF00F04FF8BB7B68211846FFF7E8FEE4
:100478000346FB72BB7B69211846FFF7E1FE034682
:10048800BB72BB7B6A211846FFF7DAFE03467B7214
:10049800BB7B6B211846FFF7D3FE03463B72BB7B41
:1004A8006C211846FFF7CCFE0346FB71BB7B6D2120
:1004B8001846FFF7C5FE0346BB71BB7A1B021AB28A
:1004C800FB7A1BB213431BB29AB20B4B1A803B7ACE
:1004D8001B021AB27B7A1BB213431BB29AB2074BA8
:1004E8001A80BB791B021AB2FB791BB213431BB2E9
:1004F8009AB2034B1A80B6E70400002006000020D9
:100508000800002080B400AF00BFBD4680BC704723
:100518000348044B834202D0034B03B1184770478A
:100528000400002004000020000000000548064BDD
:100538001B1AD90F01EBA301491002D0034B03B1D9
:100548001847704704000020040000200000000045
:1005580010B5064C237843B9FFF7DAFF044B13B103
:100568000448AFF300800123237010BD0A00002067
:10057800000000001407000808B5054B1BB1054929
:100588000548AFF30080BDE80840FFF7CFBF00BFC4
:10059800000000000C00002014070008DFF830D02D
:1005A8000C480D490D4A002302E0D458C4500433C6
:1005B800C4188C42F9D30A4A0A4C002301E013609C
:1005C8000432A242FBD300F011F8FFF72DFF704769
:1005D8000000022000000020040000203807000866
:1005E80004000020BC010020FEE7000070B50F4B9E
:1005F8000F4DAB42A3EB050607D0B610002455F803
:10060800043B01349847A642F9D800F07FF8094D19
:10061800094B5E1BAB424FEAA60606D0002455F8EC
:10062800043B01349847A642F9D870BD2C0700084E
:100638002C0700082C07000834070008704700BF83
:10064800704700BF024B13B1024800F005B870476D
:10065800000000006D060008002301461A461846EF
:1006680000F014B838B5074D074C2C1BA41005D062
:10067800013C55F8043D9847002CF9D1BDE83840B5
:1006880000F04AB838070008340700082DE9F84395
:100698001B4D0646286898460F469146FFF7CEFF41
:1006A800184B1C681CB3286865681F2D22DC4EB9DE
:1006B8006B1C0235636044F82570FFF7C1FF00200A
:1006C800BDE8F88304EB85010123C1F88890D4F8CC
:1006D8008821AB401A43022EC4F88821C1F808814A
:1006E800E6D1D4F88C211A43C4F88C21E0E7064CF3
:1006F8001C60D8E7FFF7A4FF4FF0FF30E0E700BF2A
:1007080000000020280000202C000020F8B500BFC1
:10071800F8BC08BC9E467047F8B500BFF8BC08BCDA
:040728009E46704732
:08072C004D06000881050008DC
:04073400590500085B
:040738002400002079
:04000005080005A545
:00000001FF
