:020000040800F2
:10000000000002201D0400086D0400086D040008B3
:100010006D0400086D0400086D0400080000000075
:100020000000000000000000000000006D04000857
:100030006D040008000000006D040008B50200080F
:100040006D0400086D0400086D0400086D040008CC
:100050006D0400086D0400086D0400086D040008BC
:100060006D0400086D0400086D0400086D040008AC
:100070006D0400086D0400086D0400086D0400089C
:100080006D0400086D0400086D0400080000000005
:100090000000000000000000000000006D040008E7
:1000A0006D0400086D0400086D0400086D0400086C
:1000B0006D0400086D0400086D0400086D0400085C
:1000C0006D0400086D0400086D0400086D0400084C
:1000D0006D0400086D0400086D04000800000000B5
:1000E0006D0400086D0400086D04000800000000A5
:1000F0000000000000000000000000006D04000887
:10010000000000006D0400086D0400086D04000884
:1001100000000000000000000000000000000000DF
:100120006D0400086D0400086D0400086D040008EB
:100130006D04000800000000000000000000000046
:100140000000000000000000000000006D04000836
:100150006D0400086D0400086D0400086D040008BB
:100160006D0400086D04000800000000000000009D
:10017000000000000000000000000000000000007F
:10018000000000006D0400080000000000000000F6
:080190006D0400086D04000875
:1001980080B485B000AF114BFB60FB681B6843F06F
:1001A8000802FB681A600E4BBB600E4B7B60BB6895
:1001B8001B6823F07F42BB681A60BB681B6843F06A
:1001C800AA42BB681A607B681B6823F470427B688C
:1001D8001A6000BF1437BD4680BC704730380240F3
:1001E800000C0240040C024080B485B000AF034606
:1001F8000A46FB711346BB710E4BFB60BB79012BA2
:1002080009D1FB681B68FA79012101FA02F21A4345
:10021800FB681A6009E0FB681B68FA79012101FA9A
:1002280002F2D2431A40FB681A6000BF1437BD4679
:1002380080BC7047140C024080B485B000AF0E4BF0
:10024800FB60FB681B6843F00102FB681A600B4BFC
:10025800BB60BB681B6823F00302BB681A60084BCD
:100268007B607B681B6823F003027B681A6000BF11
:100278001437BD4680BC7047303802400000024049
:100288000C00024080B483B000AF074B7B607B68F2
:100298001B68DBB203F00103FB70FB7818460C37D0
:1002A800BD4680BC704700BF1000024080B400AF5C
:1002B800044B1B680133034A136000BFBD4680BC72
:1002C800704700BF0800002080B483B000AF094B1E
:1002D8007B60094B3B603B6843F67F621A607B6832
:1002E8001B6843F007027B681A6000BF0C37BD46E5
:1002F80080BC704710E000E014E000E080B483B0F8
:1003080000AF7860074B00221A6000BF054B1B68DE
:100318007A689A42FAD800BF00BF0C37BD4680BC45
:10032800704700BF0800002080B400AF00BFBD4682
:1003380080BC704780B500AFFFF7C6FFFFF728FF06
:10034800FFF77AFF01210C20FFF74EFF4FF47A7078
:10035800FFF7D4FF00210C20FFF746FF4FF4FA7097
:10036800FFF7CCFF01210D20FFF73EFF4FF47A7015
:10037800FFF7C4FF00210D20FFF736FF4FF4FA7096
:10038800FFF7BCFFDEE700BF0348044B834202D0FF
:10039800034B03B1184770470400002004000020F5
:1003A800000000000548064B1B1AD90F01EBA301FA
:1003B800491002D0034B03B11847704704000020CE
:1003C800040000200000000010B5064C237843B953
:1003D800FFF7DAFF044B13B10448AFF300800123A1
:1003E800237010BD0C0000200000000090050008DC
:1003F80008B5054B1BB105490548AFF30080BDE8BA
:100408000840FFF7CFBF00BF000000001000002029
:1004180090050008DFF834D00D480E490E4A002335
:1004280002E0D458C4500433C4188C42F9D30B4AA0
:100438000B4C002301E013600432A242FBD3FFF708
:1004480073FF00F011F8FFF775FF704700000220F6
:100458000000002004000020B4050008040000206B
:10046800C0010020FEE7000070B50F4B0F4DAB42F6
:10047800A3EB050607D0B610002455F8043B013459
:100488009847A642F9D800F07FF8094D094B5E1B42
:10049800AB424FEAA60606D0002455F8043B0134C7
:1004A8009847A642F9D870BDA8050008A805000815
:1004B800A8050008B0050008704700BF704700BFD6
:1004C800024B13B1024800F005B870470000000065
:1004D800E9040008002301461A46184600F014B83B
:1004E80038B5074D074C2C1BA41005D0013C55F816
:1004F800043D9847002CF9D1BDE8384000F04AB8CF
:10050800B4050008B00500082DE9F8431B4D064660
:10051800286898460F469146FFF7CEFF184B1C688F
:100528001CB3286865681F2D22DC4EB96B1C023588
:10053800636044F82570FFF7C1FF0020BDE8F88329
:1005480004EB85010123C1F88890D4F88821AB40D9
:100558001A43022EC4F88821C1F80881E6D1D4F8DC
:100568008C211A43C4F88C21E0E7064C1C60D8E7BC
:10057800FFF7A4FF4FF0FF30E0E700BF00000020C6
:100588002C00002030000020F8B500BFF8BC08BCE3
:100598009E467047F8B500BFF8BC08BC9E46704739
:0805A800C9040008F903000872
:0405B000D10300086B
:0405B40028000020FB
:040000050800041DCE
:00000001FF
