:020000040800F2
:10000000000002206D030008BD030008BD030008C6
:10001000BD030008BD030008BD0300080000000088
:10002000000000000000000000000000BD03000808
:10003000BD03000800000000BD030008990100088E
:10004000BD030008BD030008BD030008BD03000890
:10005000BD030008BD030008BD030008BD03000880
:10006000BD030008BD030008BD030008BD03000870
:10007000BD030008BD030008BD030008BD03000860
:10008000BD030008BD030008BD0300080000000018
:10009000000000000000000000000000BD03000898
:1000A000BD030008BD030008BD030008BD03000830
:1000B000BD030008BD030008BD030008BD03000820
:1000C000BD030008BD030008BD030008BD03000810
:1000D000BD030008BD030008BD03000800000000C8
:1000E000BD030008BD030008BD03000800000000B8
:1000F000000000000000000000000000BD03000838
:1001000000000000BD030008BD030008BD03000897
:1001100000000000000000000000000000000000DF
:10012000BD030008BD030008BD030008BD030008AF
:10013000BD030008000000000000000000000000F7
:10014000000000000000000000000000BD030008E7
:10015000BD030008BD030008BD030008BD0300087F
:10016000BD030008BD0300080000000000000000FF
:10017000000000000000000000000000000000007F
:1001800000000000BD0300080000000000000000A7
:08019000BD030008BD030008D7
:1001980080B400AF044B1B680133034A136000BFEF
:1001A800BD4680BC704700BF0800002080B483B003
:1001B80000AF094B7B60094B3B603B6843F67F62AD
:1001C8001A607B681B6843F007027B681A6000BFEF
:1001D8000C37BD4680BC704710E000E014E000E03A
:1001E80080B483B000AF7860074B00221A6000BF6C
:1001F800054B1B687A689A42FAD800BF00BF0C37D3
:10020800BD4680BC704700BF0800002080B485B0A0
:1002180000AF114BFB60FB681B6843F00802FB68EA
:100228001A600E4BBB60BB681B6823F04062BB685A
:100238001A60BB681B6843F08062BB681A60084B91
:100248007B607B681B6823F400527B681A6000BFE0
:100258001437BD4680BC704730380240000C02405D
:10026800040C024080B485B000AF0346FB710B4B11
:10027800FB60FB79012B06D1FB681B6843F4005235
:10028800FB681A6005E0FB681B6823F40052FB68F2
:100298001A6000BF1437BD4680BC7047140C02407A
:1002A80080B400AF00BFBD4680BC704780B500AFCA
:1002B800FFF77CFFFFF7AAFF0120FFF7D3FF4FF4FA
:1002C800FA70FFF78DFF0020FFF7CCFF4FF47A702C
:1002D800FFF786FFF0E700BF0348044B834202D0D4
:1002E800034B03B1184770470400002004000020A6
:1002F800000000000548064B1B1AD90F01EBA301AB
:10030800491002D0034B03B118477047040000207E
:10031800040000200000000010B5064C237843B903
:10032800FFF7DAFF044B13B10448AFF30080012351
:10033800237010BD0C00002000000000E00400083D
:1003480008B5054B1BB105490548AFF30080BDE86A
:100358000840FFF7CFBF00BF0000000010000020DA
:10036800E0040008DFF834D00D480E490E4A002397
:1003780002E0D458C4500433C4188C42F9D30B4A51
:100388000B4C002301E013600432A242FBD3FFF7B9
:1003980087FF00F011F8FFF789FF7047000002207F
:1003A80000000020040000200405000804000020CC
:1003B800C0010020FEE7000070B50F4B0F4DAB42A7
:1003C800A3EB050607D0B610002455F8043B01340A
:1003D8009847A642F9D800F07FF8094D094B5E1BF3
:1003E800AB424FEAA60606D0002455F8043B013478
:1003F8009847A642F9D870BDF8040008F804000828
:10040800F804000800050008704700BF704700BFE7
:10041800024B13B1024800F005B870470000000015
:1004280039040008002301461A46184600F014B89B
:1004380038B5074D074C2C1BA41005D0013C55F8C6
:10044800043D9847002CF9D1BDE8384000F04AB87F
:1004580004050008000500082DE9F8431B4D064671
:10046800286898460F469146FFF7CEFF184B1C6840
:100478001CB3286865681F2D22DC4EB96B1C023539
:10048800636044F82570FFF7C1FF0020BDE8F883DA
:1004980004EB85010123C1F88890D4F88821AB408A
:1004A8001A43022EC4F88821C1F80881E6D1D4F88D
:1004B8008C211A43C4F88C21E0E7064C1C60D8E76D
:1004C800FFF7A4FF4FF0FF30E0E700BF0000002077
:1004D8002C00002030000020F8B500BFF8BC08BC94
:1004E8009E467047F8B500BFF8BC08BC9E467047EA
:0804F800190400084903000883
:0405000021030008CB
:0405040028000020AB
:040000050800036D7F
:00000001FF
