:020000040800F2
:1000000000000220C10400081105000811050008C5
:100010001105000811050008110500080000000086
:1000200000000000000000000000000011050008B2
:1000300011050008000000001105000895030008E4
:100040001105000811050008110500081105000838
:100050001105000811050008110500081105000828
:100060001105000811050008110500081105000818
:100070001105000811050008110500081105000808
:100080001105000811050008110500080000000016
:100090000000000000000000000000001105000842
:1000A00011050008110500081105000811050008D8
:1000B00011050008110500081105000811050008C8
:1000C00011050008110500081105000811050008B8
:1000D00011050008110500081105000800000000C6
:1000E00011050008110500081105000800000000B6
:1000F00000000000000000000000000011050008E2
:100100000000000011050008110500081105000895
:1001100000000000000000000000000000000000DF
:100120001105000811050008110500081105000857
:1001300011050008000000000000000000000000A1
:100140000000000000000000000000001105000891
:100150001105000811050008110500081105000827
:100160001105000811050008000000000000000053
:10017000000000000000000000000000000000007F
:100180000000000011050008000000000000000051
:0801900011050008110500082B
:1001980080B483B000AF0D4B7B600D4B3B607B6838
:1001A8001B6823F07F427B681A607B681B6843F0FA
:1001B800AA427B681A603B681B6823F470423B685C
:1001C8001A6000BF0C37BD4680BC7047000C024067
:1001D800040C024080B485B000AF03460A46FB71A8
:1001E8001346BB710F4BFB60BB79012B0AD1FB682F
:1001F8001B68FA790C32012101FA02F21A43FB68F2
:100208001A600AE0FB681B68FA790C32012101FACE
:1002180002F2D2431A40FB681A6000BF1437BD4689
:1002280080BC7047140C024080B483B000AF0A4B06
:100238007B600A4B3B607B681B6823F003027B688A
:100248001A603B681B6843F003023B681A6000BFF2
:100258000C37BD4680BC7047000002400C000240CD
:1002680080B483B000AF084B7B600023FB707B68D1
:100278001B68DBB203F00103FB70FB7818460C37F0
:10028800BD4680BC704700BF1000024080B400AF7C
:1002980000BFBD4680BC704780B582B000AF00F09B
:1002A8001FF800F081F800F0ADF8FFF771FFFFF7D5
:1002B800BBFF00F015F8FFF7D3FF0346012B02D16F
:1002C800054B7B6001E0054B7B607B681B683B60EE
:1002D8003B689847FEE700BF044000080480000818
:1002E80080B485B000AF254BFB60FB681B6843F406
:1002F8008032FB681A6000BFFB681B6803F4003398
:10030800002BF9D01E4BBB60BB681B6843F480020E
:10031800BB681A60BB681B6823F44032BB681A606C
:10032800BB681B6843F4A062BB681A60BB681B68A3
:1003380043F00802BB681A60FB681B6843F08072D0
:10034800FB681A6000BFFB681B6803F00073002B92
:10035800F9D00C4B7B607B681B6843F002027B681A
:100368001A60094B3B603B681B6843F009023B6815
:100378001A6000BF1437BD4680BC70470038024081
:1003880004380240083802403038024080B400AFD8
:10039800044B1B680133034A136000BFBD4680BC91
:1003A800704700BF0400002080B483B000AF084B42
:1003B8007B60084B3B603B6843F67F621A607B6852
:1003C80007221A6000BF0C37BD4680BC704700BFCB
:1003D80010E000E014E000E080B483B000AF786083
:1003E800074B00221A6000BF054B1B687A689A42C7
:1003F800FAD800BF00BF0C37BD4680BC704700BFAD
:100408000400002080B400AF054B1B68054A1A4061
:100418000349054B13430B6000BFBD4680BC7047C2
:100428000CED00E0000405FA0003FA050348044B4C
:10043800834202D0034B03B11847704704000020E1
:1004480004000020000000000548064B1B1AD90FC5
:1004580001EBA301491002D0034B03B118477047C1
:1004680004000020040000200000000010B5064C25
:10047800237843B9FFF7DAFF044B13B10448AFF30D
:1004880000800123237010BD080000200000000038
:100498003406000808B5054B1BB105490548AFF3FC
:1004A8000080BDE80840FFF7CFBF00BF0000000094
:1004B8000C00002034060008DFF834D00D480E493F
:1004C8000E4A002302E0D458C4500433C4188C42A6
:1004D800F9D30B4A0B4C002301E013600432A2420B
:1004E800FBD3FFF7D3FE00F011F8FFF7D5FE7047F6
:1004F8000000022000000020040000205806000828
:1005080004000020BC010020FEE7000070B50F4B7E
:100518000F4DAB42A3EB050607D0B610002455F8E3
:10052800043B01349847A642F9D800F07FF8094DFA
:10053800094B5E1BAB424FEAA60606D0002455F8CD
:10054800043B01349847A642F9D870BD4C06000810
:100558004C0600084C06000854060008704700BF07
:10056800704700BF024B13B1024800F005B870474E
:10057800000000008D050008002301461A461846B1
:1005880000F014B838B5074D074C2C1BA41005D043
:10059800013C55F8043D9847002CF9D1BDE8384096
:1005A80000F04AB858060008540600082DE9F84338
:1005B8001B4D0646286898460F469146FFF7CEFF22
:1005C800184B1C681CB3286865681F2D22DC4EB9BF
:1005D8006B1C0235636044F82570FFF7C1FF0020EB
:1005E800BDE8F88304EB85010123C1F88890D4F8AD
:1005F8008821AB401A43022EC4F88821C1F808812B
:10060800E6D1D4F88C211A43C4F88C21E0E7064CD3
:100618001C60D8E7FFF7A4FF4FF0FF30E0E700BF0A
:1006280000000020280000202C000020F8B500BFA2
:10063800F8BC08BC9E467047F8B500BFF8BC08BCBB
:040648009E46704713
:08064C006D0500089D04000883
:040654007504000821
:04065800240000205A
:04000005080004C12A
:00000001FF
