:020000040800F2
:10000000000002203904000889040008890400085F
:100010008904000889040008890400080000000021
:10002000000000000000000000000000890400083B
:100030008904000800000000890400088904000801
:10004000890400088904000889040008890400085C
:10005000890400088904000889040008890400084C
:10006000890400088904000889040008890400083C
:10007000890400088904000889040008890400082C
:1000800041030008890400088904000800000000FA
:1000900000000000000000000000000089040008CB
:1000A00089040008890400088904000889040008FC
:1000B00089040008890400088904000889040008EC
:1000C00089040008890400088904000889040008DC
:1000D0008904000889040008890400080000000061
:1000E0008904000889040008890400080000000051
:1000F000000000000000000000000000890400086B
:100100000000000089040008890400088904000830
:1001100000000000000000000000000000000000DF
:10012000890400088904000889040008890400087B
:10013000890400080000000000000000000000002A
:10014000000000000000000000000000890400081A
:10015000890400088904000889040008890400084B
:100160008904000889040008000000000000000065
:10017000000000000000000000000000000000007F
:1001800000000000890400080000000000000000DA
:0801900089040008890400083D
:1001980080B500AF00F00EF800F012F800F07EF81D
:1001A800034B1B78DBB2012BFAD100F009FAF7E711
:1001B8008C05002080B400AF00BFBD4680BC7047EE
:1001C80080B489B000AF2D4BFB61FB691B6843F01D
:1001D8000102FB691A602A4BBB61BB691B6823F0EB
:1001E800F002BB691A60BB691B6843F0A002BB69D7
:1001F8001A60244B7B617B691B6843F400327B697E
:100208001A60214B3B613B691B6843F4EE423B6932
:100218001A601E4BFB60FB681B6843F4D06343F015
:100228000303FA6813601A4BBB60BB681B6843F092
:100238004002BB681A60174B7B607B681B6823F41D
:1002480080527B681A607B681B6823F480627B6835
:100258001A607B681B6843F4005343F00C037A6808
:1002680013600D4B3B603B681B6843F480323B686E
:100278001A6000BF2437BD4680BC70473038024042
:10028800000002404038024020000240084400407C
:10029800144400400C44004000E100E080B487B002
:1002A80000AF1E4B7B617B691B6843F400127B69BE
:1002B8001A601B4B3B613B691B6823F060623B691A
:1002C8001A603B691B6843F000623B691A603B692E
:1002D8001B6843F480623B691A603B691B6843F002
:1002E80010023B691A600F4BFB60FB680E4A1A60EC
:1002F8000E4BBB600E4ABB681A600E4B7B607B6876
:100308004FF47C721A603B691B6843F001023B6939
:100318001A6000BF1C37BD4680BC704730380240A9
:1003280088600240906002400444004094600240AB
:100338009C0100208C60024080B485B000AF154B52
:10034800FB60FB681B6823F00102FB681A6000BFB2
:10035800FB681B6803F00103002BF9D10E4BBB604F
:10036800BB681B6843F40062BB681A600B4B7B6078
:100378007B684FF47C721A60FB681B6843F00102CB
:10038800FB681A60064B01221A7000BF1437BD467D
:1003980080BC7047886002400C6002408C6002405C
:1003A8008C0500200348044B834202D0034B03B161
:1003B800184770479C0100209C01002000000000A5
:1003C8000548064B1B1AD90F01EBA301491002D0AF
:1003D800034B03B1184770479C0100209C01002083
:1003E8000000000010B5064C237843B9FFF7DAFF88
:1003F800044B13B10448AFF300800123237010BDF0
:100408008D05002000000000AC05000808B5054B6C
:100418001BB105490548AFF30080BDE80840FFF768
:10042800CFBF00BF0000000090050020AC05000809
:10043800DFF834D00D480E490E4A002302E0D458A4
:10044800C4500433C4188C42F9D30B4A0B4C002314
:1004580001E013600432A242FBD3FFF7ABFE00F0C9
:1004680011F8FFF795FE70470000022000000020F9
:100478009C010020DC0500089C01002040070020AA
:10048800FEE7000070B50F4B0F4DAB42A3EB05061E
:1004980007D0B610002455F8043B01349847A6420B
:1004A800F9D800F07FF8094D094B5E1BAB424FEAC3
:1004B800A60606D0002455F8043B01349847A64206
:1004C800F9D870BDD0050008D0050008D00500088F
:1004D800D8050008704700BF704700BF024B13B132
:1004E800024800F005B87047000000000505000844
:1004F800002301461A46184600F014B838B5074DCF
:10050800074C2C1BA41005D0013C55F8043D984716
:10051800002CF9D1BDE8384000F04AB8DC050008E5
:10052800D80500082DE9F8431B4D0646286898466B
:100538000F469146FFF7CEFF184B1C681CB328687E
:1005480065681F2D22DC4EB96B1C0235636044F8C8
:100558002570FFF7C1FF0020BDE8F88304EB850193
:100568000123C1F88890D4F88821AB401A43022EA1
:10057800C4F88821C1F80881E6D1D4F88C211A433F
:10058800C4F88C21E0E7064C1C60D8E7FFF7A4FF0D
:100598004FF0FF30E0E700BF00000020AC0500206E
:1005A800B0050020F8B500BFF8BC08BC9E467047EF
:1005B800F8B500BFF8BC08BC9E46704700000000B4
:0805C8005FF800F0550100206E
:0805D000E50400081504000811
:0405D800ED03000827
:1005DC00A805002080B487B000AF78607B68002B42
:1005EC0002DB7B68072B02DD4FF0FF3338E01F4B3B
:1005FC007B6100BF7B691B6803F48033002BF9D14E
:10060C001B4B3B613B691B68DB0F012B07D1194B63
:10061C00FB60FB68184A1A60FB68184A1A603B6951
:10062C001B6843F002023B691A603B691B687A68DD
:10063C00D2001A433B691A603B691B6843F4803251
:10064C003B691A6000BF7B691B6803F48033002B85
:10065C00F9D13B691B6823F002023B691A60002345
:10066C0018461C37BD4680BC704700BF0C3C02408E
:10067C00103C0240043C024023016745AB89EFCD9E
:10068C0080B489B000AFF860B9607A60204BBB6170
:10069C0000BFBB691B6803F48033002BF9D11D4BE1
:1006AC007B617B691B68DB0F012B07D11A4B3B610C
:1006BC003B691A4A1A603B69194A1A607B691B68C4
:1006CC0043F001027B691A600023FB610AE0FB69BD
:1006DC00BA681A44FB69F9680B4412781A70FB6902
:1006EC000133FB61FA697B689A42F0DB00BFBB699E
:1006FC001B6803F48033002BF9D17B691B6823F052
:10070C0001027B691A6000BF2437BD4680BC70476C
:10071C000C3C0240103C0240043C02402301674563
:10072C00AB89EFCD80B500AF0020FFF753FF4FF43E
:10073C007C7204494FF00060FFF7A2FF00F004F850
:10074C0000BF80BD9C01002080B483B000AF054B7E
:10075C007B607B68044A1A6000BF0C37BD4680BCC6
:0C076C00704700BF0CED00E00400FA052F
:0400000508000439B2
:00000001FF
