:020000040800F2
:1000000000000220ED0400083D0500083D05000841
:100010003D0500083D0500083D0500080000000002
:100020000000000000000000000000003D05000886
:100030003D050008000000003D0500083D050008E2
:100040003D0500083D0500083D0500083D05000888
:100050003D0500083D0500083D0500083D05000878
:100060003D0500083D0500083D0500083D05000868
:100070003D0500083D0500083D0500083D05000858
:10008000010400083D0500083D05000800000000CF
:100090000000000000000000000000003D05000816
:1000A0003D0500083D0500083D0500083D05000828
:1000B0003D0500083D0500083D0500083D05000818
:1000C0003D0500083D0500083D0500083D05000808
:1000D0003D0500083D0500083D0500080000000042
:1000E0003D0500083D0500083D0500080000000032
:1000F0000000000000000000000000003D050008B6
:10010000000000003D0500083D0500083D05000811
:1001100000000000000000000000000000000000DF
:100120003D0500083D0500083D0500083D050008A7
:100130003D05000800000000000000000000000075
:100140000000000000000000000000003D05000865
:100150003D0500083D0500083D0500083D05000877
:100160003D0500083D0500080000000000000000FB
:10017000000000000000000000000000000000007F
:10018000000000003D050008000000000000000025
:080190003D0500083D050008D3
:1001980080B500AF00F00EF800F0E0F8014800F07C
:1001A800ABF8FEE77806000880B400AF00BFBD4694
:1001B80080BC704780B489B000AF2D4BFB61FB69F0
:1001C8001B6843F00102FB691A602A4BBB61BB69DB
:1001D8001B6823F0F002BB691A60BB691B6843F017
:1001E800A002BB691A60244B7B617B691B6843F4DE
:1001F80000327B691A60214B3B613B691B6843F401
:10020800EE423B691A601E4BFB60FB681B6843F4B7
:10021800D06343F00303FA6813601A4BBB60BB68F2
:100228001B6843F04002BB681A60174B7B607B6811
:100238001B6823F480527B681A607B681B6823F470
:1002480080627B681A607B681B6843F4005343F044
:100258000C037A6813600D4B3B603B681B6843F4E2
:1002680080323B681A6000BF2437BD4680BC7047A7
:10027800303802400000024040380240200002406E
:1002880008440040144400400C44004000E100E0F1
:1002980080B487B000AF0346FB71154B3B6100BFCC
:1002A8003B691B6803F08003002BF9D0114BFB60FE
:1002B800FA79FB681A6000237B6105E07B695A1CA8
:1002C8007A61B3F57A7F06D83B691B6803F040036F
:1002D800002BF3D000E000BF3B691B6823F040020D
:1002E8003B691A6000BF1C37BD4680BC704700BF21
:1002F800004400400444004080B582B000AF7860FC
:1003080006E07B685A1C7A601B781846FFF7C0FF26
:100318007B681B78002BF4D100BF00BF0837BD46AF
:1003280080BD80B485B000AF0A4BFB600A4BBB6050
:1003380000BFFB681B6803F02003002BF9D00023E3
:10034800FB71BB681B68FB71FB7918461437BD4607
:1003580080BC7047004400400444004080B487B02B
:1003680000AF1E4B7B617B691B6843F400127B69FD
:100378001A601B4B3B613B691B6823F060623B6959
:100388001A603B691B6843F000623B691A603B696D
:100398001B6843F480623B691A603B691B6843F041
:1003A80010023B691A600F4BFB60FB680E4A1A602B
:1003B8000E4BBB600E4ABB681A600E4B7B607B68B5
:1003C80020221A603B691B6843F001023B691A60EE
:1003D80000BF1C37BD4680BC704700BF30380240A4
:1003E80088600240906002400444004094600240EB
:1003F800080000208C60024080B485B000AF134B29
:10040800FB60FB681B6823F00102FB681A6000BFF1
:10041800FB681B6803F00103002BF9D10C4BBB6090
:10042800BB681B6843F40062BB681A60094B7B60B9
:100438007B6820221A60FB681B6843F00102FB6896
:100448001A6000BF1437BD4680BC70478860024000
:100458000C6002408C6002400348044B834202D087
:10046800034B03B118477047040000200400002024
:10047800000000000548064B1B1AD90F01EBA30129
:10048800491002D0034B03B11847704704000020FD
:10049800040000200000000010B5064C237843B982
:1004A800FFF7DAFF044B13B10448AFF300800123D0
:1004B800237010BD2800002000000000600600081E
:1004C80008B5054B1BB105490548AFF30080BDE8E9
:1004D8000840FFF7CFBF00BF000000002C0000203D
:1004E80060060008DFF834D00D480E490E4A002394
:1004F80002E0D458C4500433C4188C42F9D30B4AD0
:100508000B4C002301E013600432A242FBD3FFF737
:100518004BFE00F011F8FFF73BFE70470000022089
:1005280000000020040000209C06000804000020B1
:10053800DC010020FEE7000070B50F4B0F4DAB4209
:10054800A3EB050607D0B610002455F8043B013488
:100558009847A642F9D800F07FF8094D094B5E1B71
:10056800AB424FEAA60606D0002455F8043B0134F6
:100578009847A642F9D870BD900600089006000872
:100588009006000898060008704700BF704700BF33
:10059800024B13B1024800F005B870470000000094
:1005A800B9050008002301461A46184600F014B899
:1005B80038B5074D074C2C1BA41005D0013C55F845
:1005C800043D9847002CF9D1BDE8384000F04AB8FE
:1005D8009C060008980600082DE9F8431B4D0646BE
:1005E800286898460F469146FFF7CEFF184B1C68BF
:1005F8001CB3286865681F2D22DC4EB96B1C0235B8
:10060800636044F82570FFF7C1FF0020BDE8F88358
:1006180004EB85010123C1F88890D4F88821AB4008
:100628001A43022EC4F88821C1F80881E6D1D4F80B
:100638008C211A43C4F88C21E0E7064C1C60D8E7EB
:10064800FFF7A4FF4FF0FF30E0E700BF00000020F5
:10065800480000204C000020F8B500BFF8BC08BCDA
:100668009E467047F8B500BFF8BC08BC9E46704768
:10067800496D205468616E672C2049276D20667289
:080688006F6D2050544954002D
:0806900099050008C9040008E7
:04069800A1040008B1
:04069C0044000020F6
:04000005080004EDFE
:00000001FF
