:020000040800F2
:100000000000022065040008B5040008B5040008DB
:10001000B5040008B5040008B5040008000000009D
:10002000000000000000000000000000B50400080F
:10003000B504000800000000B5040008F102000843
:10004000B5040008B5040008B5040008B5040008AC
:10005000B5040008B5040008B5040008B50400089C
:10006000B5040008B5040008B5040008B50400088C
:10007000B5040008B5040008B5040008B50400087C
:10008000B5040008B5040008B5040008000000002D
:10009000000000000000000000000000B50400089F
:1000A000B5040008B5040008B5040008B50400084C
:1000B000B5040008B5040008B5040008B50400083C
:1000C000B5040008B5040008B5040008B50400082C
:1000D000B5040008B5040008B504000800000000DD
:1000E000B5040008B5040008B504000800000000CD
:1000F000000000000000000000000000B50400083F
:1001000000000000B5040008B5040008B5040008AC
:1001100000000000000000000000000000000000DF
:10012000B5040008B5040008B5040008B5040008CB
:10013000B5040008000000000000000000000000FE
:10014000000000000000000000000000B5040008EE
:10015000B5040008B5040008B5040008B50400089B
:10016000B5040008B504000800000000000000000D
:10017000000000000000000000000000000000007F
:1001800000000000B50400080000000000000000AE
:08019000B5040008B5040008E5
:1001980080B48DB000AF78602C4BFB62FB6A1B68A3
:1001A80043F00802FB6A1A60294BBB62BB6A1B68F2
:1001B80043F00072BB6A1A60264B7B627B6A1B683D
:1001C80043F400327B6A1A60234B3B623B6A1B682C
:1001D80043F004023B6A1A60204BFB61204BBB6171
:1001E800204B7B61FB6940F2E7321A60BB6943F63A
:1001F8007F621A607A6813469B0013445B001A46B4
:100208007B691A60184B3B61184BFB60184BBB604D
:10021800FB681B6823F00302FB681A60FB681B6815
:1002280043F06002FB681A60BB681B6843F0010278
:10023800BB681A603B691B6843F001023B691A609E
:1002480000BF3437BD4680BC704700BF303802401D
:10025800000C0240240C0240403802402C080040A8
:1002680028080040340800400008004018080040F2
:100278002008004080B485B000AF0E4BFB60FB68DF
:100288001B6843F00102FB681A600B4BBB60BB683C
:100298001B6823F00302BB681A60084B7B607B680D
:1002A8001B6823F003027B681A6000BF1437BD4641
:1002B80080BC704730380240000002400C00024009
:1002C80080B483B000AF074B7B607B681B68DBB2F0
:1002D80003F00103FB70FB7818460C37BD4680BC61
:1002E800704700BF1000024080B400AF044B1B6889
:1002F8000133034A136000BFBD4680BC704700BF8E
:100308000800002080B483B000AF094B7B60094B24
:100318003B603B6843F67F621A607B681B6843F06A
:1003280007027B681A6000BF0C37BD4680BC704767
:1003380010E000E014E000E080B483B000AF786023
:10034800074B00221A6000BF054B1B687A689A4267
:10035800FAD800BF00BF0C37BD4680BC704700BF4D
:100368000800002080B400AF00BFBD4680BC7047C5
:1003780080B500AFFFF7F6FFFFF7C4FFFFF77AFF7E
:10038800FFF79EFF0346012BFAD11420FFF7D4FF95
:10039800FFF796FF0346012BF2D10C4B1B680A337B
:1003A8000A4A1360094B1B68642B02DD074B0022C5
:1003B8001A60064B1B681846FFF7EAFE00BFFFF7F6
:1003C8007FFF0346012BFAD0DAE700BF04000020C4
:1003D8000348044B834202D0034B03B118477047CC
:1003E8000400002004000020000000000548064B1F
:1003F8001B1AD90F01EBA301491002D0034B03B11B
:100408001847704704000020040000200000000086
:1004180010B5064C237843B9FFF7DAFF044B13B144
:100428000448AFF300800123237010BD0C000020A6
:1004380000000000D805000808B5054B1BB10549A8
:100448000548AFF30080BDE80840FFF7CFBF00BF05
:100458000000000010000020D8050008DFF834D0A4
:100468000D480E490E4A002302E0D458C450043304
:10047800C4188C42F9D30B4A0B4C002301E01360DB
:100488000432A242FBD3FFF76DFF00F011F8FFF72B
:100498006FFF7047000002200000002004000020C9
:1004A800FC05000804000020C0010020FEE7000051
:1004B80070B50F4B0F4DAB42A3EB050607D0B61036
:1004C800002455F8043B01349847A642F9D800F0B7
:1004D8007FF8094D094B5E1BAB424FEAA60606D0D2
:1004E800002455F8043B01349847A642F9D870BD5A
:1004F800F0050008F0050008F0050008F8050008F8
:10050800704700BF704700BF024B13B1024800F0AC
:1005180005B87047000000003105000800230146B7
:100528001A46184600F014B838B5074D074C2C1B6E
:10053800A41005D0013C55F8043D9847002CF9D18A
:10054800BDE8384000F04AB8FC050008F805000886
:100558002DE9F8431B4D0646286898460F469146F4
:10056800FFF7CEFF184B1C681CB3286865681F2D61
:1005780022DC4EB96B1C0235636044F82570FFF726
:10058800C1FF0020BDE8F88304EB85010123C1F811
:100598008890D4F88821AB401A43022EC4F88821E9
:1005A800C1F80881E6D1D4F88C211A43C4F88C210B
:1005B800E0E7064C1C60D8E7FFF7A4FF4FF0FF30D8
:1005C800E0E700BF000000202C00002030000020E1
:1005D800F8B500BFF8BC08BC9E467047F8B500BF28
:0805E800F8BC08BC9E467047F8
:0805F000110500084104000898
:0405F80019040008DA
:0405FC0028000020B3
:040000050800046586
:00000001FF
