:020000040800F2
:100000000000022031060008810600088106000871
:100010008106000881060008810600080000000033
:100020000000000000000000000000008106000841
:10003000810600080000000081060008B5020008E3
:100040008106000881060008810600088106000874
:100050008106000881060008810600088106000864
:100060008106000881060008810600088106000854
:100070008106000881060008810600088106000844
:1000800081060008810600088106000800000000C3
:1000900000000000000000000000000081060008D1
:1000A0008106000881060008810600088106000814
:1000B0008106000881060008810600088106000804
:1000C00081060008810600088106000881060008F4
:1000D0008106000881060008810600080000000073
:1000E0008106000881060008810600080000000063
:1000F0000000000000000000000000008106000871
:100100000000000081060008810600088106000842
:1001100000000000000000000000000000000000DF
:100120008106000881060008810600088106000893
:100130008106000800000000000000000000000030
:100140000000000000000000000000008106000820
:100150008106000881060008810600088106000863
:100160008106000881060008000000000000000071
:10017000000000000000000000000000000000007F
:1001800000000000810600080000000000000000E0
:08019000810600088106000849
:1001980080B485B000AF114BFB60FB681B6843F06F
:1001A8000802FB681A600E4BBB600E4B7B60BB6895
:1001B8001B6823F07F42BB681A60BB681B6843F06A
:1001C800AA42BB681A607B681B6823F470427B688C
:1001D8001A6000BF1437BD4680BC704730380240F3
:1001E800000C0240040C024080B485B000AF034606
:1001F8000A46FB711346BB710E4BFB60BB79012BA2
:1002080009D1FB681B68FA79012101FA02F21A4345
:10021800FB681A6009E0FB681B68FA79012101FA9A
:1002280002F2D2431A40FB681A6000BF1437BD4679
:1002380080BC7047140C024080B485B000AF0E4BF0
:10024800FB60FB681B6843F00102FB681A600B4BFC
:10025800BB60BB681B6823F00302BB681A60084BCD
:100268007B607B681B6823F003027B681A6000BF11
:100278001437BD4680BC7047303802400000024049
:100288000C00024080B483B000AF074B7B607B68F2
:100298001B68DBB203F00103FB70FB7818460C37D0
:1002A800BD4680BC704700BF1000024080B400AF5C
:1002B800044B1B680133034A136000BFBD4680BC72
:1002C800704700BF0400002080B483B000AF094B22
:1002D8007B60094B3B603B6843F67F621A607B6832
:1002E8001B6843F007027B681A6000BF0C37BD46E5
:1002F80080BC704710E000E014E000E080B483B0F8
:1003080000AF7860074B00221A6000BF054B1B68DE
:100318007A689A42FAD800BF00BF0C37BD4680BC45
:10032800704700BF0400002080B483B000AF0A4BC0
:100338007B600A4B3B607B681B6843F001027B686B
:100348001A603B681B6843F001023B681A6000BFF3
:100358000C37BD4680BC7047003C0140083C01405A
:1003680080B483B000AF064B7B607B681B6843F0AA
:1003780040027B681A6000BF0C37BD4680BC7047DE
:1003880000E100E080B483B000AF084B7B607B687D
:100398001B6843F001027B681A60054B01221A7042
:1003A80000BF0C37BD4680BC704700BF143C0140FD
:1003B8000800002080B400AF00BFBD4680BC704775
:1003C80080B582B000AFFFF7E3FEFFF735FFFFF718
:1003D8007BFFFFF7A9FFFFF7C3FF4FF4CC724FF085
:1003E80000614FF0005000F03FF81A4B7B607B68CB
:1003F8004FF000521A60184B3B60184B43F0010253
:100408003B681A6001210E20FFF7EEFE4FF4FA70E8
:10041800FFF774FF00210E20FFF7E6FE4FF4FA7095
:10042800FFF76CFF0E4B1B78002BEBD00D4B1B78A6
:10043800002B0CBF01230023DBB21A46094B1A70AC
:10044800084B1B7819460C20FFF7CEFE044B002200
:100458001A70D7E708ED00E0580000208D03000867
:100468000800002009000020844641EA000313F038
:1004780003036DD1403A41D351F8043B40F8043BA3
:1004880051F8043B40F8043B51F8043B40F8043B66
:1004980051F8043B40F8043B51F8043B40F8043B56
:1004A80051F8043B40F8043B51F8043B40F8043B46
:1004B80051F8043B40F8043B51F8043B40F8043B36
:1004C80051F8043B40F8043B51F8043B40F8043B26
:1004D80051F8043B40F8043B51F8043B40F8043B16
:1004E80051F8043B40F8043B51F8043B40F8043B06
:1004F80051F8043B40F8043B403ABDD2303211D3A6
:1005080051F8043B40F8043B51F8043B40F8043BE5
:1005180051F8043B40F8043B51F8043B40F8043BD5
:10052800103AEDD20C3205D351F8043B40F8043BA5
:10053800043AF9D2043208D0D2071CBF11F8013BA3
:1005480000F8013B01D30B8803806046704700BF69
:10055800082A13D38B078DD010F003038AD0C3F178
:100568000403D21ADB071CBF11F8013B00F8013B5A
:1005780080D331F8023B20F8023B7BE7043AD9D319
:10058800013A11F8013B00F8013BF9D20B780370EE
:100598004B7843708B788370604670470348044BF0
:1005A800834202D0034B03B1184770470400002070
:1005B80004000020000000000548064B1B1AD90F54
:1005C80001EBA301491002D0034B03B11847704750
:1005D80004000020040000200000000010B5064CB4
:1005E800237843B9FFF7DAFF044B13B10448AFF39C
:1005F80000800123237010BD0A00002000000000C5
:10060800A407000808B5054B1BB105490548AFF319
:100618000080BDE80840FFF7CFBF00BF0000000022
:100628000C000020A4070008DFF834D00D480E495C
:100638000E4A002302E0D458C4500433C4188C4234
:10064800F9D30B4A0B4C002301E013600432A24299
:10065800FBD3FFF7AFFE00F011F8FFF7B1FE7047CC
:10066800000002200000002004000020D00700083D
:1006780004000020BC010020FEE7000070B50F4B0D
:100688000F4DAB42A3EB050607D0B610002455F872
:10069800043B01349847A642F9D800F07FF8094D89
:1006A800094B5E1BAB424FEAA60606D0002455F85C
:1006B800043B01349847A642F9D870BDC407000826
:1006C800C4070008C4070008CC070008704700BF2B
:1006D800704700BF024B13B1024800F005B87047DD
:1006E80000000000FD060008002301461A461846CF
:1006F80000F014B838B5074D074C2C1BA41005D0D2
:10070800013C55F8043D9847002CF9D1BDE8384024
:1007180000F04AB8D0070008CC0700082DE9F843D4
:100728001B4D0646286898460F469146FFF7CEFFB0
:10073800184B1C681CB3286865681F2D22DC4EB94D
:100748006B1C0235636044F82570FFF7C1FF002079
:10075800BDE8F88304EB85010123C1F88890D4F83B
:100768008821AB401A43022EC4F88821C1F80881B9
:10077800E6D1D4F88C211A43C4F88C21E0E7064C62
:100788001C60D8E7FFF7A4FF4FF0FF30E0E700BF99
:1007980000000020280000202C000020F8B500BF31
:1007A800F8BC08BC9E467047F8B500BFF8BC08BC4A
:0407B8009E467047A2
:0807BC00B4FCFF7F0100000006
:0807C400DD0600080D06000827
:0407CC00E505000837
:0407D00024000020E1
:0400000508000631B8
:00000001FF
