:020000040800F2
:1000000000000220E905000839060008390600084A
:10001000390600083906000839060008000000000B
:100020000000000000000000000000003906000889
:1000300039060008000000003906000839060008EB
:100040003906000839060008390600083906000894
:100050003906000839060008390600083906000884
:100060003906000839060008390600083906000874
:100070003906000839060008390600083906000864
:10008000390600083906000839060008000000009B
:100090000000000000000000000000003906000819
:1000A0003906000839060008390600083906000834
:1000B0003906000839060008390600083906000824
:1000C0003906000839060008390600083906000814
:1000D000390600083906000839060008000000004B
:1000E000390600083906000839060008000000003B
:1000F00000000000000000000000000039060008B9
:10010000000000003906000839060008390600081A
:1001100000000000000000000000000000000000DF
:1001200039060008390600083906000839060008B3
:100130003906000800000000000000000000000078
:100140000000000000000000000000003906000868
:100150003906000839060008390600083906000883
:100160003906000839060008000000000000000001
:10017000000000000000000000000000000000007F
:100180000000000039060008000000000000000028
:080190003906000839060008D9
:1001980080B582B000AF00F06DF800F071F80F2064
:1001A80000F00AF90346FB710F21202000F076F9D0
:1001B800282000F001F903461A46254B1A70292019
:1001C80000F0FAF803461A46224B1A702A2000F06B
:1001D800F3F803461A46204B1A702B2000F0ECF86F
:1001E80003461A461D4B1A702C2000F0E5F803460A
:1001F8001A461B4B1A702D2000F0DEF803461A46EB
:10020800184B1A70134B1B781B021AB2104B1B7831
:100218001BB213431BB29AB2134B1A800F4B1B78B5
:100228001B021AB20C4B1B781BB213431BB29AB2B7
:100238000E4B1A800B4B1B781B021AB2084B1B780B
:100248001BB213431BB29AB2094B1A80B0E700BF26
:100258000C0000200D0000200E0000200F000020E0
:1002680010000020110000200600002008000020D7
:100278000A00002080B400AF00BFBD4680BC7047B4
:1002880080B586B000AF214B7B617B691B6843F06A
:1002980001027B691A601E4B3B613B691B6843F492
:1002A80028423B691A601B4BFB60FB681B6843F0E4
:1002B800AA4343F4A003FA68136000F057F8164BFA
:1002C800BB60BB681B6843F48052BB681A60134B61
:1002D8007B607B681B6843F004027B681A607B685C
:1002E8001B6843F020027B681A607B681B6843F434
:1002F80040727B681A607B681B6843F040027B6829
:100308001A6000BF1837BD4680BD00BF30380240B4
:100318000000024020000240443802400030014002
:1003280080B485B000AF0E4BFB60FB681B6843F0E0
:100338001002FB681A600B4BBB60BB681B6843F07C
:100348004002BB681A60084B7B607B681B6823F01F
:1003580008027B681A6000BF1437BD4680BC70472E
:1003680030380240001002401410024080B485B0BA
:1003780000AF0E4BFB60FB681B6843F01002FB6884
:100388001A600B4BBB60BB681B6843F04002BB683C
:100398001A60084B7B607B681B6843F008027B6827
:1003A8001A6000BF1437BD4680BC70473038024021
:1003B800001002401410024080B586B000AF03461A
:1003C800FB71FFF7ADFF42F210737B61314B3B616C
:1003D800314BFB6000BF3B691B6803F00203002B35
:1003E800F9D0FB7963F07F03DBB21A46FB681A6029
:1003F80000BF3B691B6803F00203002BF9D107E03B
:100408007B69013B7B617B69002B01D100233DE0C7
:100418003B691B6803F00103002BF1D000BF3B6967
:100428001B6803F08003002BF9D1FB681B68BB60D5
:1004380000BF3B691B6803F00203002BF9D0FB687F
:10044800FF221A6000BF3B691B6803F00203002B00
:10045800F9D107E07B69013B7B617B69002B01D106
:10046800002313E03B691B6803F00103002BF1D064
:1004780000BF3B691B6803F08003002BF9D1FB68C0
:100488001B68BB60FFF772FFBB68DBB21846183702
:10049800BD4680BD083001400C30014080B586B0B3
:1004A80000AF03460A46FB711346BB71FFF738FFDE
:1004B800264B7B61264B3B6100BF7B691B6803F0C1
:1004C8000203002BF9D0FA793B691A6000BF7B69F7
:1004D8001B6803F00203002BF9D100BF7B691B687E
:1004E80003F00103002BF9D000BF7B691B6803F000
:1004F8008003002BF9D13B691B68FB6000BF7B6957
:100508001B6803F00203002BF9D0BA793B691A6023
:1005180000BF7B691B6803F00203002BF9D100BF01
:100528007B691B6803F00103002BF9D000BF7B69CE
:100538001B6803F08003002BF9D13B691B68FB6043
:10054800FFF714FF00BF1837BD4680BD08300140D3
:100558000C3001400348044B834202D0034B03B1E3
:100568001847704704000020040000200000000025
:100578000548064B1B1AD90F01EBA301491002D0FD
:10058800034B03B118477047040000200400002003
:100598000000000010B5064C237843B9FFF7DAFFD6
:1005A800044B13B10448AFF300800123237010BD3E
:1005B80012000020000000005C07000808B5054B89
:1005C8001BB105490548AFF30080BDE80840FFF7B7
:1005D800CFBF00BF00000000140000205C07000827
:1005E800DFF834D00D480E490E4A002302E0D458F3
:1005F800C4500433C4188C42F9D30B4A0B4C002363
:1006080001E013600432A242FBD3FFF733FE00F08F
:1006180011F8FFF7BDFD7047000002200000002020
:10062800040000208007000804000020C401002006
:10063800FEE7000070B50F4B0F4DAB42A3EB05066C
:1006480007D0B610002455F8043B01349847A64259
:10065800F9D800F07FF8094D094B5E1BAB424FEA11
:10066800A60606D0002455F8043B01349847A64254
:10067800F9D870BD740700087407000874070008EB
:100688007C070008704700BF704700BF024B13B1DA
:10069800024800F005B8704700000000B5060008E1
:1006A800002301461A46184600F014B838B5074D1D
:1006B800074C2C1BA41005D0013C55F8043D984765
:1006C800002CF9D1BDE8384000F04AB8800700088E
:1006D8007C0700082DE9F8431B4D06462868984614
:1006E8000F469146FFF7CEFF184B1C681CB32868CD
:1006F80065681F2D22DC4EB96B1C0235636044F817
:100708002570FFF7C1FF0020BDE8F88304EB8501E1
:100718000123C1F88890D4F88821AB401A43022EEF
:10072800C4F88821C1F80881E6D1D4F88C211A438D
:10073800C4F88C21E0E7064C1C60D8E7FFF7A4FF5B
:100748004FF0FF30E0E700BF00000020300000203D
:1007580034000020F8B500BFF8BC08BC9E467047BE
:0C076800F8B500BFF8BC08BC9E46704706
:0807740095060008C505000808
:04077C009D050008CF
:040780002C00002029
:04000005080005E901
:00000001FF
